:1000000008308A00002800004D3084008313000867
:10001000031918280130F800F701F70B0D28F80B29
:100020000C284A30F700F70B13281628800B0A28F3
:1000300008008E30F7004E08F8004D08F900FA016C
:10004000F808031D2D287908F800F9010830F70297
:10005000F808031D2D28F70135280310F81B342854
:10006000F90DF80DF7032D28F813080080308318D8
:10007000D206D701D8014E08D6005208D6064D0840
:1000800003192629D500F700510803192F29D50295
:100090000319CB28031C89285208DB00DB175308FF
:1000A000DA005408D900D8010310DB0CDA0CD90CA3
:1000B000D80CD50B5328D61F602857144329571046
:1000C0005510571650308400831358295712D61BE9
:1000D0007328551C7E28DB0CDA0CD90CD80CF70AD7
:1000E00003193E297E28DB1B81280310D80DD90D6A
:1000F000DA0DDB0DF70303193E2973285717EB2898
:1001000057134E08D600D61F8728DB173729DB1375
:1001100037295108D500F7004D08D5024E08DB00FD
:10012000DB174F08DA005008D900D8010310DB0CA8
:10013000DA0CD90CD80CD50B9528D61FA228D714C9
:100140004329D7105510D7165430840083135829EB
:10015000D712D61BB528551CC028DB0CDA0CD90CDD
:10016000D80CF70A03193E29C028DB1BC32803104B
:10017000D80DD90DDA0DDB0DF70303193E29B5288B
:10018000D717EB28D7135208D600D61FC928DB177C
:100190003729DB1337295208DB00DB175308DA0055
:1001A0005408D900D61FD828DB13571543295711F7
:1001B000D80155105030840083135829D61B0129CB
:1001C0004E08D600551CEB28DB0CDA0CD90CD80CE9
:1001D000F70A03193E29D81FFC28D90A031DFC2859
:1001E000DA0A031DFC28DB0A031DFC28DB0CDA0CF1
:1001F000D90CF70A03193E29571B8028D71BC228A0
:1002000020298030DB06DB1F092943295208D6004C
:1002100016294E08D600DB08031D1629DA08031D2F
:100220001629D908031D1629F7013729DB1B2029B8
:100230000310D80DD90DDA0DDB0DF70B16293E2969
:10024000D61F2429DB173729DB1337295108F7007C
:100250005208DB005308DA005408D90037294D084A
:10026000F7004E08DB004F08DA005008D9005B08A1
:10027000F8005A08F9005908FA007629F701F80140
:10028000F901FA017629D801D909DA09DB09D80977
:10029000D80A031D5129D90A031D5129DA0A031965
:1002A000DB0A57185F28D718A1285719D72806291D
:1002B0000008D907031C6229DA0A031D6229DB0A38
:1002C0000319551484030008DA07031C6A29DB0AA2
:1002D0000319551484030008801F803ADB070318B4
:1002E0005514571A6628D71AA828DE288A150A1224
:1002F000AC284D080319E929D50051080319E9294B
:10030000D50703188A297F30D502031CE929031970
:10031000E9298E298130D5070318E9295508F70006
:10032000F801F901FA014E08D900D9174F08D80091
:100330005008D7001830D500D601571CB7295408EB
:10034000FA07031CA929F90A031DA929F80A0319A8
:10035000D6175308F907031CB029F80A0319D61752
:100360005208CF00CF174F08F8070318D617D60D3D
:10037000F80CF90CFA0CD90CD80CD70C0310D50BCF
:100380009C290130F7070318E929F81BCE29D90D5C
:10039000FA0DF90DF80DF7030319E929D91FDF2923
:1003A000FA0A031DDF29F90A031DDF29F80A031DD4
:1003B000DF29F80CF90CFA0CF70A0319E9294E08A1
:1003C000D6005208D606D61FE729F817ED29F813EC
:1003D000ED29F701F801F901FA0108004D080319A8
:1003E000B32AD90051080319B32AD902031CFD29E5
:1003F0007F30D9070318B32A032A8130D902031C9E
:10040000B32A0319B32A5908F700F801F901FA01D0
:10041000D8014E08D700D7174F08D6005008D5008E
:100420001930D9005408D5020318262A0130D60203
:100430000318262AD7020318262AD8020318262AC8
:10044000D80AD70AD60A5408D507582A5308D6021C
:100450000318412A0130D7020318412AD802031891
:10046000412AD80AD70A5308D6075408D507031CCF
:10047000582AD60A031D582AD70A031D582AD80A13
:10048000582A52088038D7020318572A0130D80258
:100490000318572AD80A52088038D7075308D607B6
:1004A000031C352AD70A031D352AD80A352A7A149F
:1004B000D90B5B2A662A0310D50DD60DD70DD80DA2
:1004C0000310FA0DF90DF80DDA0D122A5A1C6E2AD6
:1004D0000310F80CF90CFA0CDA0C712AF703031963
:1004E000B32ADA1B9A2A0310D50DD60DD70DD80DD5
:1004F0005408D5020318862A0130D6020318862A2A
:10050000D7020318862AD802031CA92A5308D60248
:100510000318912A0130D7020318912AD802031C2C
:10052000A92A52088038D70203189A2A0130D80223
:10053000031CA92AFA0A031DA92AF90A031DA92ADC
:10054000F80A031DA92AF70A0319B32AF80CF90CB3
:10055000FA0C4E08D9005208D906D91FB12AF8174B
:10056000B72AF813B72AF701F801F901FA010800D0
:100570004E08D5005208D506D51FC32A0311031013
:10058000CE1B0314F62A4E08D5005108D6004D089C
:10059000D6020319D12AD51FF62A0308013A83008F
:1005A000F62A5208D6004E08D6020319DD2AD51FB6
:1005B000F62A0308013A8300F62A5308D6004F08AA
:1005C000D6020319E92AD51FF62A0308013A830047
:1005D000F62A5408D6005008D6020319F52AD51F6A
:1005E000F62A0308013A8300F62A031008008E3029
:1005F000F7004D08F7024E08F9004F08F800F91708
:10060000F70803190E2B0310F908031D0A2BF8082D
:1006100003190E2BF90CF80CF70B032BCE1F152B1F
:10062000F809F909F80A0319F90A08004F08F8014E
:100630004E0203181E2B4E08F7002A2BF701083034
:10064000D000CE0DF70D4F0877020318F700F80D14
:10065000D00B212B08008318302B5D3084008313CE
:1006600058085C068039E200D81F412BD509D6090D
:10067000D709D809D50A0319D60A0319D70A0319C5
:10068000D80ADC1F4E2BD909DA09DB09DC09D90AA3
:100690000319DA0A0319DB0A0319DC0AF701F80166
:1006A000F901FA01DD01DE01DF01E0015C085B0414
:1006B0005A04590403198C2B2030E1000310D50D86
:1006C000D60DD70DD80DDD0DDE0DDF0DE00D5C086C
:1006D0006002031D752B5B085F02031D752B5A0812
:1006E0005E02031D752B59085D02031C862B5908F9
:1006F000DD025A08031C5A0FDE025B08031C5B0F65
:10070000DF025C08031C5C0FE0020314F70DF80D18
:10071000F90DFA0DE10B5E2BE21F992BF709F80991
:10072000F909FA09F70A0319F80A0319F90A03196A
:10073000FA0A5D088000840A5E088000840A5F0867
:100740008000840A6008800008002030D900D501AC
:10075000D601D701D8015008FA004F08F9004E0819
:10076000F8004D08F7000310771CC42B5108D5077B
:1007700052080318520FD60753080318530FD70710
:1007800054080318540FD807D80CD70CD60CD50C26
:10079000FA0CF90CF80CF70CD90BB32B0800B63097
:1007A000F700FA01F901F8015110D01FE52B51149F
:1007B000CD09CE09CF09D009CD0A031DE52BCE0AFC
:1007C000031DE52BCF0A0319D00A4D084E044F0430
:1007D0005004031DED2BF701FC2B0310F81BF92B24
:1007E000CD0DCE0DCF0DD00DFA0DF90DF80DF70B87
:0A07F000ED2BF8135118F81708005C
:1010000003081F398300FF30A300A200A100A00045
:10101000BC01BD01BE01BF01C001C10183161F1487
:101020009F141F159F1107309C0083130912831210
:1010300094120130940000308316940083129001C2
:10104000F8009200003083169200F030831297056A
:101050009D05FF30831685000030860087008800DC
:10106000831286018701880183161F1383121F13C1
:101070009F1783169F1783121F1483161F109F102C
:101080001F159F113F308312C2000630C3005B3032
:10109000C4004F30C5006630C6006D30C7007D30DB
:1010A000C8000730C9007F30CA006F30CB00003065
:1010B000F8001F08C73978049F000230CD008A115C
:1010C00004208A151F151F1963281E08FA008316AD
:1010D0001E088312CD001E08CE008A1119208A1521
:1010E0007A08B7007908B6007808B5007708B40028
:1010F0000830F8001F08C73978049F000230CD007F
:101100008A1104208A151F151F1984281E08FA0049
:1011100083161E088312CD001E08CE008A111920E6
:101120008A157A08BB007908BA007808B9007708F0
:10113000B80083143708D0003608CF003508CE0039
:101140003408CD003B08D4003A08D3003908D20057
:101150003808D1008A1136288A157A08B300790830
:10116000B2007808B1007708B000D0014030CF005D
:101170001C30CE008130CD003308D4003208D300BB
:101180003108D2003008D1008A1179218A157A08F5
:10119000AB007908AA007808A9007708A8002B08F6
:1011A000D0002A08CF002908CE002808CD00D4019D
:1011B000D3012030D2008230D1008A11EE218A156D
:1011C0007A08AF007908AE007808AD007708AC0067
:1011D0002F08D0002E08CF002D08CE002C08CD00FF
:1011E000D401D301D201D1018A11B8228A15031C7E
:1011F000EB292F08D0002E08CF002D08CE002C0898
:10120000CD00D401D3018030D2007F30D1008A11CB
:1012100079218A157A08AF007908AE007808AD0008
:101220007708AC00860106172F08D0002E08CF00E3
:101230002D08CE002C08CD008A11F7228A157808D7
:10124000CE000A30CF008A1116238A157708BC0019
:101250002F08D0002E08CF002D08CE002C08CD007E
:10126000D401D3012030D2008230D1008A11EE2186
:101270008A157A08D0007908CF007808CE00770860
:10128000CD008A11F7228A157808BD002F08D000FA
:101290002E08CF002D08CE002C08CD00D401D3019C
:1012A0002030D2008230D1008A1179218A157A0843
:1012B000D0007908CF007808CE007708CD008A11D9
:1012C000F7228A157808CE000A30CF008A1116233B
:1012D0008A157708BE0083144D30840083132308D9
:1012E000D8002208D7002108D6002008D500DC014C
:1012F000DB01DA010A30D9008A112B238A154D0847
:10130000BF0083102308D8002208D7002108D60088
:101310002008D500DC01DB01DA010A30D9008A118E
:101320002B238A157708C0002308D0002208CF009D
:101330002108CE002008CD00D401D301D2010A300B
:10134000D1008A11A5238A157A08D0007908CF0028
:101350007808CE007708CD008314513084008313C1
:101360005008D8004F08D7004E08D6004D08D500C9
:10137000DC01DB01DA010A30D9008A112B238A153E
:101380005108C10042303C07840083130008CD009F
:10139000870042303E07840083130008CD00880098
:1013A00087172F08D0002E08CF002D08CE002C085C
:1013B000CD00D401D3018030D2007F30D1008A111A
:1013C00079218A157A08AF007908AE007808AD0057
:1013D0007708AC00AF2A2F08D0002E08CF002D08C8
:1013E000CE002C08CD008A11F7228A157808CE008D
:1013F0000A30CF008A1116238A157708BC002F08FF
:10140000D0002E08CF002D08CE002C08CD00D4012E
:10141000D3012030D2008230D1008A11EE218A150A
:101420007A08D0007908CF007808CE007708CD0080
:101430008A11F7228A157808BD002F08D0002E08DF
:10144000CF002D08CE002C08CD00D401D3012030D0
:10145000D2008230D1008A1179218A157A08D00011
:101460007908CF007808CE007708CD008A11F722DE
:101470008A157808CE000A30CF008A1116238A1503
:101480007708BE0083144D30840083132308D800EE
:101490002208D7002108D6002008D500DC01DB0196
:1014A000DA010A30D9008A112B238A154D08BF00B2
:1014B00083102308D8002208D7002108D60020086E
:1014C000D500DC01DB01DA010A30D9008A112B23B7
:1014D0008A157708C0002308D0002208CF00210811
:1014E000CE002008CD00D401D301D2010A30D100B2
:1014F0008A11A5238A157A08D0007908CF007808C8
:10150000CE007708CD008314513084008313500837
:10151000D8004F08D7004E08D6004D08D500DC0192
:10152000DB01DA010A30D9008A112B238A15510810
:10153000C10042303D07840083130008CD008600BF
:1015400042303C07840083130008CD0087004230FE
:101550003E07840083130008CD00880087171430ED
:10156000CD008A1104208A1501302002A400210830
:10157000A5000030031C0130A5022208A60000309F
:10158000031C0130A6022308A7000030031C013011
:10159000A702851E442D851ACB2ACC014C08633C3A
:1015A000031C442DA31F102C8601A31FD82A061745
:1015B0000130CD008A1104208A154C08143C031C0C
:1015C000F82AA31FE42A061742303F07840083133A
:1015D0000008CD008700871742304107840083133D
:1015E0000008CD0088001430CD008A1104208A152F
:1015F0001430CD008A1104208A154C08143C0318BD
:101600000D2B4C08283C031C0D2B860187018801FB
:101610001430CD008A1104208A154C08283C031888
:101620002C2B4C083C3C031C2C2BA31F182B0617FF
:1016300042303F07840083130008CD00870042300A
:101640004107840083130008CD00880087171430F9
:10165000CD008A1104208A154C083C3C03183C2B11
:101660004C08503C031C3C2B860187018801143038
:10167000CD008A1104208A154C08503C03185B2BBE
:101680004C08633C031C5B2BA31F472B06174230FF
:101690003F07840083130008CD00870042304107D4
:1016A000840083130008CD00880087171430CD0014
:1016B0008A1104208A15051D862BCC0105195E2B85
:1016C0000130A0020030031C0130A1020030031CD5
:1016D0000130A2020030031C0130A302A71B812BA2
:1016E000A708031D7D2BA608031D7D2BA508031D40
:1016F0007D2B2408623C0318812BA701A601A501BC
:10170000A4011430CD008A1104208A15051EB32BC4
:10171000CC01051A892B0130A007003003180130D5
:10172000A107003003180130A20700300318013070
:10173000A307A31BAC2BA308031DA82BA208031D02
:10174000A82BA108031DA82B2008623C0318AC2B72
:10175000A301A201A101A001A31F06131430CD0013
:101760008A1104208A1583144D30840083132308C2
:10177000D8002208D7002108D6002008D500DC01B7
:10178000DB01DA010A30D9008A112B238A154D08B2
:10179000BF0083102308D8002208D7002108D600F4
:1017A0002008D500DC01DB01DA010A30D9008A11FA
:1017B0002B238A157708C0002308D0002208CF0009
:1017C0002108CE002008CD00D401D301D2010A3077
:1017D000D1008A11A5238A157A08D0007908CF0094
:1017E0007808CE007708CD0083145130840083132D
:1017F0005008D8004F08D7004E08D6004D08D50035
:10180000DC01DB01DA010A30D9008A112B238A15A9
:101810005108C1001430CD008A1104208A15422DD0
:101820004C08143C031C2F2C4230400784008313C7
:101830000008CD00860042303F0784008313000873
:10184000CD00870042304107840083130008CD009B
:10185000880087171430CD008A1104208A154C089F
:10186000143C03183F2C4C08283C031C3F2C8601D9
:10187000870188011430CD008A1104208A154C0894
:10188000283C0318622C4C083C3C031C622C423060
:101890004007840083130008CD00860042303F07D4
:1018A000840083130008CD00870042304107840084
:1018B00083130008CD00880087171430CD008A11EB
:1018C00004208A154C083C3C0318722C4C08503CF0
:1018D000031C722C8601870188011430CD008A1107
:1018E00004208A154C08503C0318952C4C08633C86
:1018F000031C952C42304007840083130008CD0060
:10190000860042303F07840083130008CD00870023
:1019100042304107840083130008CD0088008717F8
:101920001430CD008A1104208A15051DC02CCC016D
:101930000519982C0130A0020030031C0130A102CF
:101940000030031C0130A2020030031C0130A3024E
:10195000A71BBB2CA708031DB72CA608031DB72C7B
:10196000A508031DB72C2408623C0318BB2CA70153
:10197000A601A501A4011430CD008A1104208A1506
:10198000051EE62CCC01051AC32C0130A00700303F
:1019900003180130A107003003180130A2070030FE
:1019A00003180130A307A31BE62CA308031DE22C98
:1019B000A208031DE22CA108031DE22C2008623CB2
:1019C0000318E62CA301A201A101A00183144D304C
:1019D000840083132308D8002208D7002108D600EA
:1019E0002008D500DC01DB01DA010A30D9008A11B8
:1019F0002B238A154D08BF0083102308D800220826
:101A0000D7002108D6002008D500DC01DB01DA016F
:101A10000A30D9008A112B238A157708C0002308C1
:101A2000D0002208CF002108CE002008CD00D4012C
:101A3000D301D2010A30D1008A11A5238A157A0870
:101A4000D0007908CF007808CE007708CD00831445
:101A50005130840083135008D8004F08D7004E0837
:101A6000D6004D08D500DC01DB01DA010A30D900CF
:101A70008A112B238A155108C1001430CD008A1118
:101A800004208A15CC0ACE2A0530CD008A11042004
:101A90008A152308D0002208CF002108CE00200894
:101AA000CD008A11CF238A157A08D0007908CF009B
:101AB0007808CE007708CD002F08D4002E08D30078
:101AC0002D08D2002C08D1008A11B8228A15031CD7
:101AD0006D2D83160910831209142708D0002608DB
:101AE000CF002508CE002408CD008A11CF238A1507
:101AF0002F08D0002E08CF002D08CE002C08CD00D6
:101B00007A08D4007908D3007808D2007708D10089
:101B10008A11B8228A1503188F2D031D932D831661
:101B20000910831209102708D0002608CF002508C5
:101B3000CE002408CD008A11CF238A157A08D00060
:101B40007908CF007808CE007708CD002F08D400A0
:101B50002E08D3002D08D2002C08D1008A11B822FB
:101B60008A15031CD72D2308D0002208CF00210896
:101B7000CE002008CD008A11CF238A152F08D0006F
:101B80002E08CF002D08CE002C08CD007A08D400F6
:101B90007908D3007808D2007708D1008A11B822DA
:101BA0008A15031CD72D8316091083120910572894
:021BB0006300D0
:02400E00393F38
:00000001FF
;PIC16F877A
;CRC=E195  CREATED="05-May-17 00:47"
